:020000040800F2
:10000000D0130020010100085D210008ED1A00084E
:10001000C1200008ED040008AD2C0008000000001D
:10002000000000000000000000000000EF240008B5
:10003000EF04000800000000ED24000895260008E9
:100040001B0100081B0100081B0100081B01000820
:100050001B0100081B0100081B0100081B01000810
:100060001B0100081B0100081B0100081B01000800
:100070001B0100081B0100081B0100081B010008F0
:100080001B0100081B0100081B0100081B010008E0
:100090001B0100081B0100081B0100081B010008D0
:1000A0001B0100081B0100081B0100081B010008C0
:1000B0001B0100081B010008552700081B01000850
:1000C0001B0100081B0100081B0100081B010008A0
:1000D0001B010008A12C00081B0100081B010008DF
:1000E0001B0100081B0100081B010008DFF80CD0F1
:1000F00000F0B0F900480047D12C0008D0130020D0
:100100000648804706480047FEE7FEE7FEE7FEE7B1
:10011000FEE7FEE7FEE7FEE7FEE7FEE70D27000845
:10012000ED000008202A04DB203A21FA02F0002129
:10013000704721FA02F3D040C2F1200291400843F7
:1001400019467047F0B480EA0102D40F4200B2EBC6
:10015000410F02D20246084611464A0042D0C30D62
:10016000DDB2C1F3C752AD1A202D35DAC1F3160145
:1001700041F4000204B15242C5F1200602FA06F130
:100180002A411044B3EBD05F23D0C4B1012DA0EBC2
:10019000C35009DCF0BC4FF0004202EAC352DBB2AC
:1001A00000F5000000F0CBB8400000F1807000EBDB
:1001B000C350A0F1807040EAD170490009E04908BD
:1001C00041EAC071A0EBC35000F50000400800EB0D
:1001D000C350F0BC00F0AAB86142012202EB410119
:1001E000001BF6E7F0BC704781F00041AAE780F001
:1001F0000040A7E780EA010210B502F0004340008A
:1002000022D04A001FD0010E01EB1261C0F356004C
:10021000C2F3560240F4000042F40002A0FB0220A8
:1002200000047F39140400D0401C50EA124001D46D
:100230004000491EC2B20C0604EBD010401C40081E
:10024000802A02D003E0002010BD20F00100002928
:1002500000DA0020184310BDC10F80EAE0700844A6
:10026000CA079623002100F06AB89623002211469F
:1002700000F065B80EB5C10F80EAE0700844CA0707
:10028000002140F233438DE80E000A460B4600F091
:1002900093F803B000BD00F0004220F00040C10D13
:1002A000C0F3160040F400007F2901DA00207047F7
:1002B000962903DCC1F19601C84001E096398840D7
:1002C000002AF4D040427047C1F30A5210B5C1F37E
:1002D000130140F2FF3341F480119A4201DA002009
:1002E00010BD40F233439A42A2F2334203DC524241
:1002F000FFF718FF10BD904010BD000030B5041E80
:1003000071F1000404DB4FF00044404264EB010152
:10031000141E73F1000405DB1C464FF000435242EB
:1003200063EB04038B4208BF824230BD0029A8BFA3
:100330007047401C490008BF20F00100704710B40E
:10034000B0FA80FC00FA0CF050EA010404BF10BCC3
:10035000704749B1CCF1200421FA04F411FA0CF1F0
:1003600018BF012121430843A3EB0C01CB1D4FEA29
:1003700000614FEA102042BF002010BC704700EB24
:10038000C35010440029A4BF10BC7047401C490052
:1003900008BF20F0010010BC704710B5141E73F1A7
:1003A000000408DA401C41F1000192185B411A4335
:1003B00001D120F0010010BD2DE9F04D92469B4681
:1003C00011B1B1FA81F202E0B0FA80F22032904627
:1003D00000F052F804460F4640EA0A0041EA0B01D9
:1003E00053465A46084313D0114653EA010019D028
:1003F000C8F140025046FFF795FE05460E465046AE
:100400005946424600F038F8084305D0012004E080
:1004100020463946BDE8F08D0020054346EAE076E7
:100420002C4337430A986305E40AA0EB0800002236
:10043000FD0A44EA47540A3002D500200146E9E7A4
:10044000010510196941DDE9084500196941BDE858
:10045000F04DA2E7064C074D06E0E06840F00103CE
:1004600094E8070098471034AC42F6D3FFF742FEF9
:10047000402E0008602E0008202A04DB203A00FAF3
:1004800002F1002070479140C2F1200320FA03F3EB
:1004900019439040704770B58C1810F8015B15F047
:1004A000070301D110F8013B2A1106D110F8012BE6
:1004B00003E010F8016B01F8016B5B1EF9D12B070B
:1004C00005D40023521E0DD401F8013BFAE710F8C1
:1004D000013BCB1A921C03E013F8015B01F8015BAE
:1004E000521EF9D5A142D8D3002070BDFEE7704757
:1004F000F0B40178EE2912D18179FF290FD1447827
:100500008178C27803796518D6183544407905F0AA
:100510007F05854203D12046F0BC01F0D7BAF0BC7C
:10052000704742F6DE6206E01146491E0904090CD6
:10053000FBD1401E80B20028F6D170472DE9F04172
:100540001C4C00201C49608001204FF4706C01F1AC
:10055000140540F6FF7E00BF01EB400331F8106048
:1005600033F8022D05EB4007B21A92B227F8022C9D
:100570001E80624503D92EEA020227F8022C401C95
:100580000A28E9DB208848820C490968496A89B24F
:100590002180081AFFF76EFE21F00041FFF794FE5C
:1005A000688205480A21143001F0A2FF6080BDE88E
:1005B000F08100001C040020840F0020740E002035
:1005C00070472DE9F04104004FF0000504D094F885
:1005D0003C00002618B107E00120BDE8F08184F856
:1005E0003D60204600F084F8022084F83C0020683A
:1005F000016821F0020101602068016841F00101F9
:10060000016000F0D9F907464FF0030804E000F05C
:10061000D3F9C01B0A2853D820684068C007F6D019
:1006200021684868C00758D0A069012801D145F069
:100630008005E06901282FD025F04000226A012AB8
:100640002DD020F02000626A012A2BD020F010006B
:10065000A26A012A29D020F00800E26A012A27D0E4
:1006600020F004000A6822F0FC0202430A60D4E988
:1006700002010843D4E90412114308436168491E8A
:1006800008432168C8612068016821F00101016008
:1006900000F092F9054618E045F04000CEE740F042
:1006A0002000D0E740F01000D2E740F00800D4E787
:1006B00040F00400D6E700F07FF9401B0A2804D977
:1006C00004F83C8F0320667087E720684068C00705
:1006D000F1D120684068C00703D0042084F83C00B2
:1006E0007AE72664012084F83C00002075E70000CA
:1006F00010B50068114986B088421DD11048C16903
:1007000041F00071C161C0690E4C00F000700490AE
:100710004FF400600090002001900290694620464E
:1007200000F05EF8A01400900220019003200390D6
:100730006946204600F054F806B010BD0064004041
:10074000001002400008014010B590F8211000246C
:10075000022903D00421816301243DE001680A6875
:1007600022F00E020A6001680A6822F001020A60A3
:100770001A4A0168914201D1012121E0174A14323D
:10078000914201D110211BE0144A2832914201D13B
:10079000891515E0114A3C32914201D189140FE0CC
:1007A0000E4A5032914202D14FF4803108E00B4A98
:1007B0006432914202D14FF4801101E04FF0807118
:1007C000064A083A5160012180F82110002180F882
:1007D0002010416B01B18847204610BD080002403F
:1007E0002DE9F84FDFF890A100220AF1040B14461E
:1007F00001274FF00F090BF1040E00BF0B6807FA39
:1008000004F52B40AB4274D1DFF870C14E68A6EB03
:100810000C0866452BD00DDC032E34D005DC36B336
:10082000012E19D0022E2FD11BE0112E16D0122E20
:100830002AD119E0B8F5881F19D006DCB8F5803F39
:1008400015D0B8F5801F1FD111E0B8F5001F0ED0EC
:10085000B8F5041F18D10AE0CA6815E0CA68121D6D
:1008600012E0CA6808320FE0CA680C320CE08A68ED
:100870002AB1012A4FF0080203D0456104E00422A6
:1008800002E0056100E00022FF2B01D8064601E0EE
:1008900000F104064FEA840501D9A5F12005D6F838
:1008A00000C009FA05F82CEA080C02FA05F54CEA32
:1008B000050CC6F800C04D68ED0057D5304DAE6947
:1008C00046F00106AE61AD6924F0030605F00105AE
:1008D00000952C4D06EB050CDCF80850A6074FEAF6
:1008E000167809FA08F6B543274EB04202D1002621
:1008F00010E03BE0254EB04201D101260AE0244E33
:10090000B04201D1022605E0224EB04201D10326B9
:1009100000E0042606FA08F62E43CCF808604D687D
:10092000DAF80060ED03554601D51E4300E09E4312
:100930002E604D68DBF80060AD035D4601D51E43B7
:1009400000E09E432E604D68DEF80060ED027546C3
:1009500001D51E4300E09E432E604D68AD020E4D52
:100960002E6801D51E4300E09E432E60641C102CAF
:10097000FFF444AFBDE8F88F0004014000001110FF
:10098000001002400000014000080140000C01403E
:1009900000100140001401400C0401408068084030
:1009A00000D001207047C2684A40C26070470AB157
:1009B000016170470904FBE70148006870470000C7
:1009C0007C0D002002480168491C0160704700004E
:1009D0007C0D0020074810B5016841F0100101604E
:1009E000032000F093F8002000F006F800F018F85B
:1009F000002010BD0020024010B5044607484FF407
:100A00007A710068B0FBF1F000F095FB00222146FE
:100A1000501E00F05BF8002010BD0000800D00208B
:100A2000224808B5816941F001018161816901F0C5
:100A300001010091C16941F08051C161C06900F0BC
:100A400080500090032000F061F8002211466FF002
:100A50000B0000F03BF8002211466FF00A0000F096
:100A600035F8002211466FF0090000F02FF800223F
:100A70001146501F00F02AF800221146101F00F006
:100A800025F800221146901E00F020F800221146A1
:100A9000501E00F01BF80648416821F0E0614160FB
:100AA000416841F00071416008BD00000010024043
:100AB0000000014000F01F02012191404009800028
:100AC00000F1E020C0F8001170470000F0B40E4BB8
:100AD0001B680C46C3F30223C3F10705042D00D99C
:100AE0000425191D072901D2002300E0DB1E012681
:100AF00006FA05F1491E214099409E40761E164097
:100B00003143F0BC01F02BBB0CED00E0064900F0D6
:100B1000070208684FF6FF03184040EA0220034A24
:100B200010430860704700000CED00E00000FA057B
:100B30002DE9F047DFF83C8105460E46D8F8000065
:100B400000F00700B0420CD2D8F8001021F00701E5
:100B50003143C8F80010D8F8000000F00700B04298
:100B600063D12878444C800705D56068A96820F0D7
:100B7000F000084360602878C00745D06868012805
:100B800016D02168022816D0890700294DDA61683D
:100B900021F0030101436160FFF70EFF696807461A
:100BA00041F2883001290FD00229814619D027E06F
:100BB00021688903E9E78901E7E700BFFFF7FCFE49
:100BC000C11B494501D918E081466068C0F3810026
:100BD0000128F3D118E000BFFFF7EEFEC11B494525
:100BE0000BD86068C0F381000228F5D10CE000BF8B
:100BF000FFF7E2FEC11B494502D90320BDE8F0879B
:100C0000606810F00C0FF3D1D8F80010404601F0E6
:100C10000701B1420BD9016821F00701314301609E
:100C2000006800F00700B04201D00120E6E7287814
:100C3000400705D56068E96820F4E060084360601B
:100C40002878000706D56068296920F4605040EADA
:100C5000C100606000F03CF86168084AC1F303110C
:100C6000515CC840064908600020FFF7C5FE00201F
:100C7000C4E700000020024000100240282E0008B7
:100C8000800D00200148006870470000800D0020A2
:100C90000448054900684968044AC1F30221515CCF
:100CA000C8407047800D002000100240382E000818
:100CB0000448054900684968044AC1F3C221515CEF
:100CC000C8407047800D002000100240382E0008F8
:100CD00010B512A385B00FCB8DE80F0013A0144BF5
:100CE000006804905A68134802F00C0104290FD0E0
:100CF00008290DD1C2F38344D2031DF8041009D58D
:100D00005A6804ABC2F340429A5CB0FBF2F048432D
:100D100005B010BD08484843FAE700000203040587
:100D2000060708090A0B0C0D0E0F10100102000037
:100D30000010024000127A0000093D002DE9F84F32
:100D400004460078B94DC00748D06868C0F38100F8
:100D5000012807D06868C0F38100022809D16868BB
:100D6000C00306D52868800338D5606800286FD096
:100D700034E06068B0F5803F0BD010B1B0F5A02F23
:100D800011D0286820F480302860286820F4802062
:100D900002E0286840F480302860606888B1FFF77E
:100DA0000BFE064609E0286840F480202860F0E742
:100DB000FFF702FE801B642875D828688003F7D5EA
:100DC0000CE0FFF7F9FD064605E000BFFFF7F4FD74
:100DD000801B6428F0D828688003F7D42078944ECC
:100DE00080074FF001094FF000083BD5686810F00C
:100DF0000C0F07D06868C0F38100022809D1686829
:100E0000C00306D42868800714D5206901281FD1A3
:100E100010E02069B0B1C6F80090FFF7CDFD07469D
:100E200005E000BFFFF7C8FDC01B0228C4D8286832
:100E30008007F7D52868616920F0F80040EAC10012
:100E400028600FE0C6F80080FFF7B6FD074606E011
:100E5000E9E000BFFFF7B0FDC01B022823D82868D7
:100E60008007F7D4207800072CD57248A169D9B142
:100E7000C0F80090FFF7A0FD074604E0FFF79CFDD7
:100E8000C01B02280FD8686A8007F7D56A484FF45C
:100E9000FA510068B0FBF1F0009000BF0098411ECD
:100EA0000091FAD20EE080E0C0F80080FFF784FDE8
:100EB000074604E0FFF780FDC01B022875D8686A6A
:100EC0008007F7D42078400760D5E8690027C00084
:100ED00008D4E86940F08050E861E869012700F033
:100EE0008050009055480168C90513D401688346B5
:100EF00041F480710160FFF75FFD824606E000BFAC
:100F0000FFF75AFDA0EB0A0064284ED8DBF800007A
:100F1000C005F5D5E06801280AD008B1052813D02E
:100F2000286A20F001002862286A20F0040002E00C
:100F3000286A40F001002862E06841F2883B98B1DD
:100F4000FFF73AFD82460BE0286A40F00400286271
:100F5000EEE700BFFFF730FDA0EB0A0159455AD874
:100F6000286A8007F6D50CE0FFF726FD824605E0EB
:100F7000FFF722FDA0EB0A0159454CD8286A8007EB
:100F8000F6D41FB1E86920F08050E861E06988B3C9
:100F90006968C1F38101022945D00228C6F8608042
:100FA00004D0FFF709FD044638E034E0FFF704FD04
:100FB000074604E0FFF700FDC01B02282BD8286875
:100FC0008001F7D4206AB0F5803F05D16868A16838
:100FD00020F4003008436860D4E9080108436968D8
:100FE00021F4741108436860C6F86090FFF7E4FCD0
:100FF000044606E015E000BFFFF7DEFC001B0228F8
:1010000009D828688001F7D50BE000BFFFF7D4FCB2
:10101000001B022802D90320BDE8F88F2868800150
:10102000F4D40020F8E70120F6E7000000100240A9
:101030000000424280044242800D002000700040C7
:1010400070B5040005D00025A56294F8510010B1D8
:1010500004E0012070BD204600F034F8022084F83E
:1010600051002068016821F040010160D4E90101CC
:101070000843D4E903121143084361690843218BF3
:1010800001F400710843E1690843216A0843A16A39
:10109000084321680860A069042101EA1040616AE0
:1010A0000843216848602168E06A08612068C169D6
:1010B00021F40061C1616565012084F851000020C0
:1010C00070BD000010B50068114986B088421CD17F
:1010D0001048816941F48051816180690E4C00F4AF
:1010E00080500490A02000900220019003200390E3
:1010F00069462046FFF774FB00214020CDE900013E
:10110000029169462046FFF76BFB06B010BD000058
:101110000030014000100240000801404FF0E02183
:101120000428086903D020F004000861704740F0EB
:101130000400FAE7704710B5401EB0F1807F01D37C
:10114000012010BD4FF0E02460610F21601701F015
:1011500006F80020A06107202061002010BD10B516
:10116000FFF7E8FF10BD7047704710B590F83C20BE
:10117000012A25D0012280F83C20CA688C6822F41C
:10118000407222434C6822F4806222430C6822F4AD
:10119000006222430C6922F4805222434C6922F4FB
:1011A000005222438C6922F48042224322F40041FF
:1011B000026800232143516480F83C30002010BDB8
:1011C000022010BD30B590F83C20012A20D0012229
:1011D00080F83C20022380F83D3003685C6824F0EE
:1011E00070045C6003685C680D682C435C60036895
:1011F0009C6824F080049C6003689C6849680C43E8
:101200009C6080F83D20002180F83C10084630BDED
:10121000022030BD10B5040003D094F83D0010B199
:1012200007E0012010BD002084F83C00204600F0BB
:101230000DF8022084F83D00211D206801F0C6FA57
:10124000012084F83D00002010BD000008B50068B2
:101250000B49884212D10B48C16941F00401C161B8
:10126000C069002200F00400009011461E20FFF724
:101270002DFCBDE808401E20FFF71CBC08BD000087
:1012800000080040001002400168CA6842F00102F4
:10129000CA600068016841F00101016000207047E8
:1012A00070B5044690F83C00012817D0012584F859
:1012B0003C50022084F83D002068826822F07702CA
:1012C00022F47F4282600868502837D00DDC202845
:1012D00059D005DC88B3102841D151E0022070BDFF
:1012E000302853D040283AD13FE060282ED07028D3
:1012F0000BD0B0F5805F03D0B0F5005F2FD110E0C8
:101300002068816821F0070115E0CB68D1E901214F
:10131000206801F09CFA2168886840F077008860B6
:101320001DE0CB68D1E90121206801F090FA206826
:10133000816841F48041816011E01EE0CA6849681B
:10134000206801F03FFB5021206806E0CA68496828
:10135000206801F048FB6021206801F082FA84F8DF
:101360003D50002084F83C0070BDCA684968206880
:1013700001F028FB40212068EFE700212068ECE71E
:1013800010212068E9E720212068E6E73021206865
:10139000E3E72DE9F0410D46040003D094F83D0049
:1013A00018B108E00120BDE8F081002084F83C007D
:1013B000204600F039F8022084F83D00206881685A
:1013C00021F007018160211D206801F0FFF92268EA
:1013D00090689169166A2B68AF69034340F2033045
:1013E000814341EA0721A868EF6908434FF6FC41B1
:1013F0008843E96840EA0720014328692F6A000111
:1014000040EA0730084369686D6926F0AA0646EA93
:1014100005152943936022689061206801620120CC
:1014200084F83D000020BEE710B50368002119488C
:10143000012286B0B3F1804F1CD0174CA34217D1C4
:10144000C36943F00203C361C06900F00200049065
:1014500030208DE8070069461048FFF7C1F91048B1
:10146000416821F440614160416841F4006141609C
:1014700006B010BDC36943F00103C361C06900F049
:101480000100049003208DE8070069460548FFF736
:10149000A7F9EDE70010024000040040000C0140F5
:1014A000000001400008014010B50446006891B1F9
:1014B000042904D00122002101F0BEF92068012294
:1014C0005FF0040101F0B8F92068016841F0010102
:1014D0000160002010BD01220021F3E7704770B5C4
:1014E0000446006801694FF00005C943890715D417
:1014F000C168C943890711D4E91E01610120207721
:10150000206880698007204602D0FFF7E7FF04E0EB
:1015100000F0ACF8204600F041F925772068016919
:10152000C943490717D4C168C943490713D46FF0A9
:1015300004010161022020772068806910F4407F57
:10154000204602D0FFF7CAFF04E000F08FF82046E3
:1015500000F024F9257720680169C943090716D4EA
:10156000C168C943090712D46FF008010161042062
:1015700020772068C0698007204602D0FFF7AEFFC1
:1015800004E000F073F8204600F008F925772068A1
:101590000169C943C90617D4C168C943C90613D430
:1015A0006FF010010161082020772068C06910F4F5
:1015B000407F204602D0FFF791FF04E000F056F88C
:1015C000204600F0EBF8257720680169C943C90778
:1015D00008D1C168C943C90704D1891E01612046E9
:1015E00000F0F6F820680169C943090609D4C1680A
:1015F000C943090605D46FF0800101612046FFF759
:10160000B2FD20680169C943490609D4C168C943CC
:10161000490605D46FF040010161204600F0D9F879
:1016200020680169C94389060BD4C168C94389068A
:1016300007D46FF0200101612046BDE87040FFF73C
:1016400093BD70BD1FB500680649884209D14FF4AB
:101650004070009002200190039069460248FFF715
:10166000BFF81FBD002C014000080140704770B555
:10167000044690F83C000D4601280DD0012684F860
:101680003C60022084F83D0042B1042A18D0082AA8
:101690002AD00C2A4DD139E0022070BD206801F01B
:1016A000E9F82068816941F0080181612068816959
:1016B00021F004018161206881692A69114311E0E8
:1016C000206801F0FFF82068816941F400618161C0
:1016D0002068816921F480618161206881692A69BB
:1016E00041EA0221816124E0206801F017F92068B5
:1016F000C16941F00801C1612068C16921F004019C
:10170000C1612068C1692A69114311E0206801F0B4
:1017100031F92068C16941F40061C1612068C16983
:1017200021F48061C1612068C1692A6941EA02210E
:10173000C16184F83D60002084F83C0070BD10B5A4
:10174000040003D094F83D0010B107E0012010BD63
:10175000002084F83C00204600F00CF8022084F8B9
:101760003D00211D206801F031F8012084F83D0082
:10177000002010BD08B500680649884208D1064817
:10178000816941F400618161806900F4006000902A
:1017900008BD0000002C014000100240704700000E
:1017A00010B504460068012201F046F80749206898
:1017B000884203D1416C41F40041416420680168D2
:1017C00041F001010160002010BD0000002C01402B
:1017D000704770477047000070B502680446106893
:1017E000D168536910F00F0F51D003F0010501F4D7
:1017F000907635435DD0C20705D0CA0503D5E26BAC
:1018000042F00102E263420705D5DA0703D0E26B3A
:1018100042F00202E263820705D5DA0703D0E26BE9
:1018200042F00402E263020705D5DA0703D0E26B57
:1018300042F00802E263E26B002A34D0800604D54D
:10184000880602D5204601F0F6F820684069E16B71
:10185000C0F3801001F008010143204624D001F0BC
:10186000DCF82068416949061AD5416921F0400138
:101870004161606BA0B11B494163606BFEF764FF7F
:10188000002810D0606B416BBDE8704008478306AC
:101890000FD58B060DD52046BDE8704001F0CBB8C2
:1018A0002046FFF797FF70BDFFF794FF0020E0632D
:1018B00070BD030606D50B0604D52046BDE8704072
:1018C00001F0BCB94006F3D54806F1D5D1682046F1
:1018D00021F04001D160202184F8391000F0F4F8A3
:1018E00070BD00000B2A000870B5040004D094F805
:1018F0003900002510B106E0012070BD84F8385091
:10190000204600F023F8242084F839002068C168BC
:1019100021F40051C160204601F0D8F82068016927
:1019200021F4904101612068416921F02A0141615F
:101930002068C16841F40051C160E563202084F84B
:10194000390084F83A00002070BD000010B500682E
:10195000174986B0884229D11648816941F48041EF
:1019600081618069144C00F4804004904020009014
:10197000022001900320039069462046FEF730FFC5
:1019800000218020CDE90001029169462046FEF742
:1019900027FF0A48416841F00401416000221146D6
:1019A0002520FFF793F82520FFF784F806B010BD37
:1019B0000038014000100240000C014000000140CE
:1019C00090F83A30202B22D1F9B1F2B190F83830AA
:1019D000012B1CD081628285C2850021C163222235
:1019E00080F83A2080F838100168CA6842F48072A2
:1019F000CA6001684A6942F001024A610068C16830
:101A000041F02001C1600020704701207047022092
:101A10007047000070B5284A0168914229D1274CCF
:101A20000122A168FFF7CCFF00B1FEE7A1682448BE
:101A3000244B0A7822700578FF2D0DD009780122F9
:101A4000512937D01EDC4A2932D015DC422927D053
:101A500045290ED103210BE061685A54491C61608D
:101A6000FF2A01D1072905D0072902DD0021616085
:101A7000017070BDFE21FBE74F290FD05029F8D12E
:101A80000521F5E752290DD053290FD054290BD049
:101A9000EE29EED11970FF216260E9E7027070BD96
:101AA0000221E5E70421E3E70621E1E70721DFE77B
:101AB0000821DDE70921DBE70038014004040020AC
:101AC00000000020340F00207047000010B51446BD
:101AD000102B08D1012806D1084600F009FB002C84
:101AE00001D00148447010BD04040020FEE70A2024
:101AF000401EC0B2FCD270471FB54FF4404000906A
:101B0000032003901120084C019069462046FEF7FF
:101B100067FE0122D1032046FEF749FF012291030F
:101B20002046FEF744FF1FBD000C01402DE9F041A7
:101B3000164F05464FF40046002231463846FEF760
:101B400036FF00244FF48048280601D5012200E02A
:101B5000002241463846FEF72AFF6806050EFFF7C9
:101B6000C6FF012231463846FEF721FFFFF7BFFFCF
:101B7000002231463846FEF71AFFFFF7B8FF641C13
:101B8000E4B2082CE0D3BDE8F0810000000C014075
:101B900070B50122174C960331462046FEF707FF29
:101BA000FFF7A5FF0122D50329462046FEF7FFFED9
:101BB000FFF79DFF31462046FEF7F0FEA8B1002258
:101BC00031462046FEF7F3FEFFF791FF002229463B
:101BD0002046FEF7ECFEFFF78AFF29462046FEF777
:101BE000DDFE012803D0002070BD012070BD022061
:101BF00070BD0000000C014070B50D4D4FF48044E5
:101C0000002221462846FEF7D2FEFFF770FF012290
:101C1000D1032846FEF7CBFEFFF769FF01222146DC
:101C20002846FEF7C4FEBDE87040FFF760BF000025
:101C3000000C01402DE9F0410122144D96030024CF
:101C400031462846FEF7B3FEFFF751FF0122D703C6
:101C500039462846FEF7ABFEFFF749FF08E0641C53
:101C6000E4B2FA2C04D9FFF7C7FF0120BDE8F081E8
:101C700031462846FEF792FE0028F0D10022394670
:101C80002846FEF794FE0020F0E70000000C01401B
:101C900010B56420FEF745FC00226B21D02000F037
:101CA00056FC07221921D02000F051FC06221A21EF
:101CB000D02000F04CFC18221B21D02000F047FC63
:101CC00001221C21D02000F042FCBDE8104064201D
:101CD000FEF727BC0E4810B50C4901601021416089
:101CE00000218160C160016141618161C161016266
:101CF00041628162C162FEF764FC002805D0BDE844
:101D00001040452103A000F0D2BF10BD0064004088
:101D1000980D00202E2E2F5372632F63616E2E6359
:101D2000000000002DE9F0432D4885B0816941F0A5
:101D300010018161816901F010010491816941F014
:101D400020018161816901F020010491816941F0E4
:101D500004018161816901F004010491816941F00C
:101D6000080181618069012200F008001D4F5403C1
:101D7000049021463846FEF71AFEDFF86C800122F7
:101D800004214046FEF713FEDFF86090012240F286
:101D900001414846FEF70BFE002240F6020148468C
:101DA000FEF705FE009401AA01240025022682E820
:101DB000700069463846FEF713FD04208DE8710077
:101DC00069464046FEF70CFD40F603408DE8710081
:101DD00069464846FEF704FD05B0BDE8F083000003
:101DE000001002400010014000080140000C0140BA
:101DF000114810B50F4901604FF482714160002114
:101E00008160C1604FF400720161C0E905120822CF
:101E1000C0E90721416281620A21C162FFF710F91E
:101E2000002805D0BDE81040452104A000F03FBFC8
:101E300010BD000000300140DC0D00202E2E2F537D
:101E400072632F7370692E630000000010B52B4879
:101E500090B02949016047210024C0E90114C8213C
:101E6000C0E9031444618461FFF769FC18B146219D
:101E700023A000F01CFF0E940EA920480F94FFF73A
:101E8000A1F918B14D211EA000F011FF60200090B3
:101E90006420CDE90104039404940594002269466A
:101EA00016480694FFF7E3FB18B1592114A000F07F
:101EB000FEFE32200190042269461048FFF7D7FB4E
:101EC00018B15F210EA000F0F2FE07940894099467
:101ED0004FF400500A94CDE90B4007A907480D9430
:101EE000FFF743F918B16B2105A000F0E0FE0348AD
:101EF000FFF7A8FB10B010BD002C0140340E0020ED
:101F00002E2E2F5372632F74696D2E630000000014
:101F100010B517488CB04FF08041016003210024B8
:101F2000C0E901144FF6FF72C0E9032484610091F7
:101F30000120CDE9014003940494CDE905400794C4
:101F400069460B480894FFF724FA18B1882109A0C4
:101F500000F0ADFE099409A905480A94FFF732F98B
:101F6000002803D08F2103A000F0A1FE0CB010BD0B
:101F7000740E00202E2E2F5372632F74696D2E6302
:101F80000000000010B518488CB01649016003210C
:101F90000024C0E901144FF6FF71C0E90314846105
:101FA0000120CDE90004CDE902040494CDE9054007
:101FB000079469460C480894FFF7EBF918B1AA2179
:101FC0000AA000F074FE099409A907480A94FFF7D3
:101FD000F9F8002803D0B12104A000F068FE0CB08D
:101FE00010BD000000040040B40E00202E2E2F5320
:101FF00072632F74696D2E630000000010B51848DD
:1020000086B01649016047210024C0E9011442F25C
:102010000F71C0E903148461FFF7FCF818B1C32104
:1020200010A000F044FE4FF48050009069460C4828
:10203000FFF736F918B1C9210AA000F038FE049460
:1020400004A907480594FFF7BDF8002803D0D02164
:1020500004A000F02CFE06B010BD000000080040F7
:10206000F40E00202E2E2F5372632F74696D2E6391
:10207000000000000D4810B50B4901604FF4E1313C
:102080004160002181600C22C160C0E904128161BD
:10209000C161FFF729FC002805D0BDE810404421AC
:1020A00003A000F004BE10BD00380140440F002022
:1020B0002E2E2F5372632F75736172742E6300007E
:1020C000FEE7000010B5002000F076FC064C002270
:1020D00001212046FEF76BFC20460022BDE810409F
:1020E0000221FEF764BC0000000C014000F064BC5B
:1020F00010B538B101280BD0022808D1BDE8104036
:1021000000F00CB8FFF7DEFF03490020087010BD97
:10211000BDE8104000F012B80504002010B5064CD0
:10212000012202212046FEF742FC20460022BDE8A3
:1021300010400121FEF73BBC000C014010B5064CDD
:10214000012211462046FEF732FC20460022BDE85F
:1021500010400221FEF72BBC000C0140704709071C
:10216000090E002806DA00F00F0000F1E02080F8E8
:10217000141D704700F1E02080F80014704770B51E
:10218000002404F1B000C0B2002100F03FF90021AA
:10219000084600F03BF90021102000F037F9002537
:1021A0000121002000F032F96D1CEDB2802DF7D333
:1021B000641CE4B2082CE4D370BD2DE9F0479846C6
:1021C0001746824600260C46DDF8209011E0214695
:1021D000504600F0D1F8554607E019F806000121F5
:1021E000761C00F013F96D1CEDB2BD42F5D3641CF2
:1021F000E4B24445EBD3BDE8F087000070B55C481D
:1022000086B00025816941F0040181618069594EE1
:1022100000F004000490F82000900120CDE90105B1
:102220000320039069463046FEF7DAFA00220821BF
:102230003046FEF7BCFB012240213046FEF7B7FBDB
:1022400040F6B83400206D1C401CC828FCDBA542B9
:10225000F8DB00252A4640213046FEF7A8FB002186
:102260006D1C491CC829FCDBA542F8DB012240217A
:102270003046FEF79CFB0021AE2000F0C7F800219D
:10228000084600F0C3F80021102000F0BFF800213C
:10229000402000F0BBF80021812000F0B7F80021B9
:1022A000CF2000F0B3F80021A12000F0AFF800210A
:1022B000C82000F0ABF80021A62000F0A7F800210C
:1022C000A82000F0A3F800213F2000F09FF8002193
:1022D000D32000F09BF80021084600F097F8002179
:1022E000D52000F093F80021802000F08FF8002125
:1022F000D92000F08BF80021F12000F087F80021B0
:10230000DA2000F083F80021122000F07FF800218D
:10231000DB2000F07BF80021402000F077F800215E
:10232000202000F073F80021022000F06FF8002157
:102330008D2000F06BF80021142000F067F80021D8
:10234000A42000F063F80021A62000F05FF800212F
:10235000AF2000F05BF80021AF2000F057F8FFF746
:102360000EFF0021084600F007F806B070BD00001F
:10237000001002400008014010B50446B031C8B258
:10238000002100F043F8102040EA1410002100F072
:102390003DF804F00F00BDE8104040F001000021BE
:1023A00000F034B82DE9F0411E4615460F46804630
:1023B000FFF7E2FF1448002400EB85154FF0010100
:1023C000285D16B100F022F801E000F057F8641C17
:1023D000E4B2102CF2D37F1CF9B24046FFF7CCFFD9
:1023E0005FF0000405EB04004FF0010190F82000BD
:1023F00016B100F00BF801E000F040F8641CE4B204
:10240000102CEFD3BDE8F081100A002070B51A4EF1
:10241000054609B1012200E0002210213046FEF7F6
:10242000C6FA002208213046FEF7C1FA0024002235
:1024300020213046FEF7BBFA280601D5012200E034
:10244000002280213046FEF7B2FA012220213046D8
:10245000FEF7ADFA6806641C050EE4B2082CE6D35C
:10246000002208213046FEF7A2FA3046BDE870404F
:1024700001221021FEF79BBA0008014070B51A4EE8
:10248000054609B1012200E0002210213046FEF786
:102490008EFA002208213046FEF789FA0024002235
:1024A00020213046FEF783FA280601D5002200E0FD
:1024B000012280213046FEF77AFA0122202130469F
:1024C000FEF775FA6806641C050EE4B2082CE6D324
:1024D000002208213046FEF76AFA3046BDE8704017
:1024E00001221021FEF763BA0008014070477047CF
:1024F000F0B501231E46002210E0541C0BE000BF83
:1025000030F8127030F814C0674503D920F812C0B3
:1025100020F81470641C8C42F2DB521C8A42ECDB03
:102520000022491E0FE000BF00EB420730F81240C6
:102530007F88A74201D15B1C00E00123B34201DD8B
:102540001E462546521C8A42EEDB2846F0BD70B579
:1025500015460E460446FFF71BFB2046FFF7E6FA3A
:10256000FFF768FB3046FFF7E1FAFFF763FB284609
:10257000FFF7DCFAFFF75EFBBDE87040FFF73CBBFE
:102580002DE9F047304C314DA268EA60E2682A61DB
:1025900022696A616269AA61FDF726FEFDF77BFE8A
:1025A00000B2A883A062B5F908104FF4FA69494552
:1025B00001DB002803DA002903DC002801DC00200D
:1025C0000BE0FDF757FE21F000410022204BFDF704
:1025D00095FE01D2A06900E0E0696861B5F91C6070
:1025E0003046FDF739FE0746D5E90410FDF702FE37
:1025F0003946FDF7FFFDB5F91E708046F01BFDF76B
:102600002BFEE968FDF7F6FD4146FDF79BFDFDF762
:1026100042FEE88020802989A180084401B22981F6
:102620002F842762EE836662A9806180494502DBC0
:10263000C820BDE8F087002901DA0020F9E70A2068
:1026400091FBF0F0F5E70000500D0020AC0F0020EA
:102650000000F03F0A480949016000218180C180E3
:1026600001818183C18301840649C16006490161FA
:102670000649416106498161704700000000C84178
:10268000AC0F0020000048423333B33E000020412D
:102690006666E63F10B5FEF795F9BDE81040FEF717
:1026A0005EBD30B58FB001210804CDE900100024D3
:1026B000029402250491CDE907504FF4E0100990EF
:1026C0006846FEF73BFB00B1FEE70F20CDE90A05A7
:1026D0004FF48060CDE90C4002210AA80E94FEF769
:1026E00027FA00B1FEE7FEF7CDFA4FF47A71B0FB9E
:1026F000F1F0FEF720FD0420FEF710FD0022114648
:10270000501EFEF7E3F90FB030BD00000D48016820
:1027100041F00101016041680B4A114041600168CC
:102720000A4A11400160016821F48021016041687A
:1027300021F4FE0141604FF41F0181600449C00390
:1027400008607047001002400000FFF8FFFFF6FE2F
:1027500008ED00E070B51948FEF7C1FE184C0521E0
:102760002078B0FBF1F201FB120098B9FDF7E6FE0C
:10277000FDF77BFD6421FDF723FF0546A0601148AE
:102780000078FDF772FD2946FFF7FAFE6060C0B2DF
:10279000FFF7ACFC20781421401CC0B2B0FBF1F272
:1027A000207001FB1200002806D1BDE870404FF4F4
:1027B00000510548FEF7F7B870BD0000F40E002088
:1027C000100400200504002000100140F0B502684C
:1027D000164B174C174D4FF08047984205D0B84222
:1027E00003D0A04201D0A84203D122F070064A686B
:1027F0003243984205D0B84203D0A04201D0A8424B
:1028000003D122F44074CA68224322F080044A694A
:10281000224302608A68C2620A688262984201D1D9
:102820000969016301214161F0BD0000002C0140F4
:10283000000400400008004010B50123046A8B40EA
:102840009C430462036A8A401343036210BD10B5BF
:10285000846842EA032224F47F440A4322438260CC
:1028600010BD826822F070020A4342F007018160C5
:102870007047000030B5026A22F001020262026A6B
:102880004368846924F073050C682C4322F0020528
:102890008A682A430A4DA8420BD122F00805CA686B
:1028A00023F440732A434D6922F004021D438B69CF
:1028B0002B434360846149684163026230BD00007C
:1028C000002C014030B5026A22F010020262026A56
:1028D000436884690D6824F4E64444EA05248D685D
:1028E00022F0200242EA05120B4DA8420ED1CD681B
:1028F00022F0800242EA05124D6923F4406343EA64
:1029000085038D6922F0400243EA850343608461B8
:1029100049688163026230BD002C014030B5026A13
:1029200022F480720262036A4268C46923F400736D
:1029300024F073050C682C438D6843EA05230C4D85
:10294000A8420ED1CD6823F4006343EA05234D6904
:1029500022F4405242EA05128D6923F4806342EA70
:1029600005124260C4614968C163036230BD000062
:10297000002C014030B5026A22F480520262046ADF
:102980004268C3690D6823F4E64343EA05238D6872
:1029900024F4005444EA0534064DA84204D14D699C
:1029A00022F4804242EA85124260C36149680164B0
:1029B000046230BD002C01400149086070470000EE
:1029C000342C014010B5036A046A24F00104046247
:1029D000846924F0F00444EA021423F00A020A4352
:1029E0008461026210BD10B5036A23F01003036214
:1029F0008369046A23F4704343EA023224F0A0039B
:102A000043EA01118261016210BD10B5406A0021E4
:102A1000C185C184FEF7DEFE10BD0168CA6822F4DC
:102A20009072CA6001684A6922F001024A6120215D
:102A300080F83A10704710B590F83A10222901D06A
:102A4000022010BD8168B1F5805F11D001690029B5
:102A500001681FD0496801F07F03816A4A1C8262C5
:102A60000B70C18D491E0904090CC18518D02BE0DB
:102A70000269816A002A0268526805D0D2B20A80CF
:102A8000816A491C8162ECE7C2F308020A80816A0C
:102A9000891CF7E74A68816A4B1C83620A70E0E789
:102AA0000168CA6822F02002CA600168CA6822F47C
:102AB0008072CA6001684A6922F001024A612021DD
:102AC00080F83A10FEF7A6FF002010BD2DE9F04176
:102AD000044600680169E26821F440511143016134
:102AE0002169A0680843616908432168CA6841F206
:102AF0000C639A430243CA6020684169A26921F4C9
:102B00004071114341614C49206864253226884256
:102B10003CD1FEF7CDF800EBC00101EB001061687D
:102B20008900B0FBF1F7FEF7C3F800EBC00101EB41
:102B300000106168B0468900B0FBF1F0B0FBF5F021
:102B40006FF01801484307EB800106EB0110B0FB62
:102B5000F5F000F0F006FEF7ABF800EBC00101EB7A
:102B6000001061688900B0FBF1F0B0FBF5F006EBF6
:102B70000016FEF79DF800EBC00101EB0010616844
:102B80008900B0FBF1F7FEF793F83BE0FEF780F821
:102B900000EBC00101EB001061688900B0FBF1F7A8
:102BA000FEF776F800EBC00101EB00106168B0465B
:102BB0008900B0FBF1F0B0FBF5F06FF0180148436D
:102BC00007EB800106EB0110B0FBF5F000F0F0061A
:102BD000FEF75EF800EBC00101EB001061688900B0
:102BE000B0FBF1F0B0FBF5F006EB0016FEF750F885
:102BF00000EBC00101EB001061688900B0FBF1F748
:102C0000FEF746F800EBC00101EB00106168890097
:102C1000B0FBF1F0B0FBF5F06FF01801484307EBA3
:102C2000800108EB0110B0FBF5F0216800F00F0007
:102C300030448860BDE8F0810038014090F83910D8
:102C4000212901D0022070478168B1F5805F016AB7
:102C50000BD04A1C0262026809785160C18C491E7F
:102C60000904090CC1840ED017E009880268C1F379
:102C70000801516001690029016A02D0491C016202
:102C8000ECE7891CFBE70168CA6822F08002CA6091
:102C90000068C16841F04001C16000207047000039
:102CA0000148FEF799BD0000440F0020FEE7FEE753
:102CB00002E008C8121F08C1002AFAD17047704705
:102CC000002001E001C1121F002AFBD17047000063
:102CD000364C08B534482060FDF77CFEFFF7E1FC78
:102CE000FFF720F8FEF7F6FFFFF782F8FFF7AEF8E0
:102CF000FFF7C0F9FFF70CF9FFF744F9FFF77EF98A
:102D000000212B48FEF74CFD04212948FEF748FD21
:102D100018212848FEF7C8FB18212748FEF7C4FBF6
:102D20002648FEF7B1FA2648FEF710FE2548FEF7C2
:102D3000C9F9FEF7E1FEFEF7ABFFFFF75FFA00F01F
:102D400047F821480021009007237F220846FFF71B
:102D500034FA01221A482168FEF732FEFFF77AFCA6
:102D6000194C0025641E207806281BD006DCFAD2F8
:102D7000DFE800F0031013161818F4E7072811D045
:102D800008280FD009280DD0FE28ECD10F48FDF7F8
:102D9000AFFB07E0FFF7D2F904E0FFF7BFF901E06E
:102DA000FFF790F92570DEE7840D00200C04002069
:102DB000340E0020740E0020B40E0020F40E00200B
:102DC000440F0020DC0D002001000020340F002003
:102DD00070B55A26122500210C46E2B2E8B2012352
:102DE000FFF7E0FAB54200DA1235042C01D0082CC6
:102DF00000D118254E26042C12D0052C10D0062CFC
:102E00000ED0072C0CD0082C0CD0092C0AD00A2C80
:102E100008D00B2C06D00021641C0C2CDDDD70BD0D
:102E20000221F9E70421F7E700000000000000009C
:102E30000102030406070809000000000102030460
:102E4000602E000800000020840D00009604000899
:102E500074340008840D00204C060000C02C0008CB
:102E60000146181980E0F8FC7E3E7EFFFFFEF8F870
:102E7000FD9FBFFEF2F2FEFCFCDCC0E002022A80F5
:102E80002015980C0482E2F28C440202CCE0701807
:102E90000C14060A7A0247081414C8E83CE00B84B4
:102EA00042401CACA6A21A12041809F0FFFFFF7FD3
:102EB0003FFFFE070912010225FC1812181818100E
:102EC000091D1711080804020F1F101010085201E5
:102ED0003C10140B0B0008120F0F101013100814E5
:102EE00001010112014F03071F3F3F7F735BEFFF9B
:102EF00009390101602A41834303034EC01B03F0DB
:102F0000F976000B65FBDFFFFF7F3F3FBF7F3F127E
:102F10001C480AC0E0EC201F4E3B0787801C1F0F97
:102F20000397025E012A8001490A15EF819F832AD7
:102F30000E0D0E5C0FFFFF6F2579480880C0C0F0B2
:102F4000F8FCFEEA19012EFEFEFDFEFC012AFD053D
:102F5000055EFFCF07041E0303070F1F011D3F3F40
:102F60003F7F012B3F3F0B290A5901025B3F72F85B
:102F70004333301C100C0603912C40C07803112CF5
:102F8000043F0403212D7088FC0829261820FF2106
:102F90001E14F008F033E0184D211C031E11338875
:102FA00070000C101E2123241927211010160E4525
:102FB000E018040225071820403D020418E0692C9F
:102FC00020180707174080F08040403F0202010FA1
:102FD00001022842F01D0101011F04912B80B066FF
:102FE000B1191D2901913A30CE492C146018043CC6
:102FF0006018061D1EE010080810721F0F10202018
:10300000100FF05310F83620203F20203C700808A5
:10301000C21E3028242221441E3008888848082EE9
:103020001820202011CC3BC0203227070424243F45
:10303000241AF8202308084B19212036E01088882C
:10304000184B0F11101E380808C8382021523F1A9B
:10305000702E29608F1C222121221C90111D3122EB
:103060002211901961CAC0C26A80C659081C40204A
:103070001050170102040810204A4001114A0401AF
:103080002119152A403219251B0402F21B7048D160
:103090003AF0501A360F1EC030C828E870280807CA
:1030A00018272423140B6F2A387E280D203C230276
:1030B0000227382008F888889F4B203FF01BC0303B
:1030C0003F1B083830191019781B08F80F194039C0
:1030D000201B100F103E8888E8081010AC23201821
:1030E00010112A035E2940223829402C221E02405A
:1030F00019A41809F808203F21010121252A0852A6
:10310000298129424149112EC08080807F0E2FF8ED
:1031100088C0281808501C0126382F2940292F293B
:10312000801B20301012F81AF81413203F190229BE
:10313000204B30C0601A2074123F4BE010B06B0F70
:1031400010B029D01AF0301980220179203F1824BC
:103150002438504FC04C888870C0140C30204B70FD
:1031600088C11738202121221C3A189F4A18823919
:10317000A049D0112A1F90121F240878881BC83834
:10318000151C07380E60191A1AF8201114033C0791
:1031900014073C0348140818688080681808203019
:1031A0002C03032C30200838C82F5950298F2910A0
:1031B0002F203826212020681145FE020202257F9B
:1031C0004040401A0CE0611C0106380B191D42FEFC
:1031D000191D527F1A04120211045A80011930D9A4
:1031E0001D391621180819242222223F20AB390F3D
:1031F000115F3F112020110E21311A0E104B2011AA
:10320000104B88F8102A10B359401A1F3F2B221375
:103210000F16F0888888181A20D029D1497A2117EA
:103220006B94949493603960190F4C203F21F354B0
:10323000809898793059121AC02719D1193039312C
:103240001F203F24022D30212A0812893069D729F6
:103250004B2903190BC96079A019BF2B201FDD3939
:103260000F9C80FFA1E0191229D03BA0FF0C395020
:10327000194112208A01C01B3324012A190F3AE098
:10328000413952290F392349603C103F202C290530
:103290003F010E3008060170291038080F300C036A
:1032A0000C300F2C49A14E312E0E31200C29621DFD
:1032B000818E70183059D1215721302C2221305560
:1032C000807C0202443F404072FF39083C02027C8D
:1032D0008F5440403F8008060101020204040010A0
:1032E00011100C445454FC555654FC545444140CC2
:1032F0000010111111090503212545499103050904
:1033000011111B2020F72809A4242420FF20222C9F
:10331000F1F11C40C07E7A080A10222220030C1012
:103320002040F8401530AC63103A84010213FC2EA3
:103330002267221212D91901041141407810091094
:103340009453321E32521006157E4242427E4BFF8B
:1033500049010214FF100908CC4A49484ACC180F09
:10336000117F88888482E03E26121252927F0A15CD
:103370007E20000E12020212620202FE020242329D
:1033800002024A01015AFF080910C0100A88C4232A
:1033900008F493F29AF60D104044C444401112FF11
:1033A000180A1097543F54971040808701132995AD
:1033B00029DC0C11204080E0230403693A0B110141
:1033C0000E213808884828180FE8080109111F2B1A
:1033D0000809013AFF0609122112E0000C12FF1041
:1033E00020403C1010FF10101019F2199C1E404292
:1033F00042427F040A1040601008CC4A49484ACC37
:10340000182E7F88888482CBF11EFF12125292BF41
:103410000A147E20151060028C16FE02F202FE2AAB
:10342000F86A0110100B04047E018047300F10274A
:103430001B478047011015404042CC2A90010D11D6
:10344000FF101116C121000D193F1028603F101008
:10345000010E3040F0259A99993F1812803F8FC293
:10346000753DEB51B83D0AD7A33C6666E614F104FE
:0434700000A24A0468
:04000005080000ED02
:00000001FF
